{
  "_format": "hh-sol-artifact-1",
  "contractName": "MarsxLands",
  "sourceName": "contracts/MarsxLands.sol",
  "abi": [
    {
      "inputs": [
        {
          "internalType": "address",
          "name": "_mxTokenAddress",
          "type": "address"
        },
        {
          "internalType": "address",
          "name": "_authorizedSigner",
          "type": "address"
        },
        {
          "internalType": "uint256",
          "name": "_mintPrice",
          "type": "uint256"
        },
        {
          "internalType": "string",
          "name": "baseURI",
          "type": "string"
        }
      ],
      "stateMutability": "nonpayable",
      "type": "constructor"
    },
    {
      "inputs": [],
      "name": "ECDSAInvalidSignature",
      "type": "error"
    },
    {
      "inputs": [
        {
          "internalType": "uint256",
          "name": "length",
          "type": "uint256"
        }
      ],
      "name": "ECDSAInvalidSignatureLength",
      "type": "error"
    },
    {
      "inputs": [
        {
          "internalType": "bytes32",
          "name": "s",
          "type": "bytes32"
        }
      ],
      "name": "ECDSAInvalidSignatureS",
      "type": "error"
    },
    {
      "inputs": [
        {
          "internalType": "address",
          "name": "sender",
          "type": "address"
        },
        {
          "internalType": "uint256",
          "name": "tokenId",
          "type": "uint256"
        },
        {
          "internalType": "address",
          "name": "owner",
          "type": "address"
        }
      ],
      "name": "ERC721IncorrectOwner",
      "type": "error"
    },
    {
      "inputs": [
        {
          "internalType": "address",
          "name": "operator",
          "type": "address"
        },
        {
          "internalType": "uint256",
          "name": "tokenId",
          "type": "uint256"
        }
      ],
      "name": "ERC721InsufficientApproval",
      "type": "error"
    },
    {
      "inputs": [
        {
          "internalType": "address",
          "name": "approver",
          "type": "address"
        }
      ],
      "name": "ERC721InvalidApprover",
      "type": "error"
    },
    {
      "inputs": [
        {
          "internalType": "address",
          "name": "operator",
          "type": "address"
        }
      ],
      "name": "ERC721InvalidOperator",
      "type": "error"
    },
    {
      "inputs": [
        {
          "internalType": "address",
          "name": "owner",
          "type": "address"
        }
      ],
      "name": "ERC721InvalidOwner",
      "type": "error"
    },
    {
      "inputs": [
        {
          "internalType": "address",
          "name": "receiver",
          "type": "address"
        }
      ],
      "name": "ERC721InvalidReceiver",
      "type": "error"
    },
    {
      "inputs": [
        {
          "internalType": "address",
          "name": "sender",
          "type": "address"
        }
      ],
      "name": "ERC721InvalidSender",
      "type": "error"
    },
    {
      "inputs": [
        {
          "internalType": "uint256",
          "name": "tokenId",
          "type": "uint256"
        }
      ],
      "name": "ERC721NonexistentToken",
      "type": "error"
    },
    {
      "inputs": [
        {
          "internalType": "address",
          "name": "owner",
          "type": "address"
        }
      ],
      "name": "OwnableInvalidOwner",
      "type": "error"
    },
    {
      "inputs": [
        {
          "internalType": "address",
          "name": "account",
          "type": "address"
        }
      ],
      "name": "OwnableUnauthorizedAccount",
      "type": "error"
    },
    {
      "inputs": [],
      "name": "ReentrancyGuardReentrantCall",
      "type": "error"
    },
    {
      "anonymous": false,
      "inputs": [
        {
          "indexed": true,
          "internalType": "address",
          "name": "owner",
          "type": "address"
        },
        {
          "indexed": true,
          "internalType": "address",
          "name": "approved",
          "type": "address"
        },
        {
          "indexed": true,
          "internalType": "uint256",
          "name": "tokenId",
          "type": "uint256"
        }
      ],
      "name": "Approval",
      "type": "event"
    },
    {
      "anonymous": false,
      "inputs": [
        {
          "indexed": true,
          "internalType": "address",
          "name": "owner",
          "type": "address"
        },
        {
          "indexed": true,
          "internalType": "address",
          "name": "operator",
          "type": "address"
        },
        {
          "indexed": false,
          "internalType": "bool",
          "name": "approved",
          "type": "bool"
        }
      ],
      "name": "ApprovalForAll",
      "type": "event"
    },
    {
      "anonymous": false,
      "inputs": [
        {
          "indexed": true,
          "internalType": "address",
          "name": "oldSigner",
          "type": "address"
        },
        {
          "indexed": true,
          "internalType": "address",
          "name": "newSigner",
          "type": "address"
        }
      ],
      "name": "AuthorizedSignerUpdated",
      "type": "event"
    },
    {
      "anonymous": false,
      "inputs": [
        {
          "indexed": false,
          "internalType": "string",
          "name": "oldURI",
          "type": "string"
        },
        {
          "indexed": false,
          "internalType": "string",
          "name": "newURI",
          "type": "string"
        }
      ],
      "name": "BaseTokenURIUpdated",
      "type": "event"
    },
    {
      "anonymous": false,
      "inputs": [
        {
          "indexed": true,
          "internalType": "address",
          "name": "buyer",
          "type": "address"
        },
        {
          "indexed": false,
          "internalType": "uint256",
          "name": "communityId",
          "type": "uint256"
        },
        {
          "indexed": false,
          "internalType": "uint256",
          "name": "tokenId",
          "type": "uint256"
        }
      ],
      "name": "LandMinted",
      "type": "event"
    },
    {
      "anonymous": false,
      "inputs": [
        {
          "indexed": true,
          "internalType": "address",
          "name": "previousOwner",
          "type": "address"
        },
        {
          "indexed": true,
          "internalType": "address",
          "name": "newOwner",
          "type": "address"
        }
      ],
      "name": "OwnershipTransferred",
      "type": "event"
    },
    {
      "anonymous": false,
      "inputs": [
        {
          "indexed": false,
          "internalType": "uint256",
          "name": "oldPrica",
          "type": "uint256"
        },
        {
          "indexed": false,
          "internalType": "uint256",
          "name": "newPrice",
          "type": "uint256"
        }
      ],
      "name": "SetPrice",
      "type": "event"
    },
    {
      "anonymous": false,
      "inputs": [
        {
          "indexed": true,
          "internalType": "address",
          "name": "from",
          "type": "address"
        },
        {
          "indexed": true,
          "internalType": "address",
          "name": "to",
          "type": "address"
        },
        {
          "indexed": true,
          "internalType": "uint256",
          "name": "tokenId",
          "type": "uint256"
        }
      ],
      "name": "Transfer",
      "type": "event"
    },
    {
      "inputs": [
        {
          "internalType": "address",
          "name": "to",
          "type": "address"
        },
        {
          "internalType": "uint256",
          "name": "tokenId",
          "type": "uint256"
        }
      ],
      "name": "approve",
      "outputs": [],
      "stateMutability": "nonpayable",
      "type": "function"
    },
    {
      "inputs": [
        {
          "internalType": "address",
          "name": "owner",
          "type": "address"
        }
      ],
      "name": "balanceOf",
      "outputs": [
        {
          "internalType": "uint256",
          "name": "",
          "type": "uint256"
        }
      ],
      "stateMutability": "view",
      "type": "function"
    },
    {
      "inputs": [
        {
          "internalType": "uint256",
          "name": "communityId",
          "type": "uint256"
        },
        {
          "internalType": "uint256[]",
          "name": "tokenIds",
          "type": "uint256[]"
        },
        {
          "internalType": "uint256",
          "name": "nonce",
          "type": "uint256"
        },
        {
          "internalType": "bytes",
          "name": "signature",
          "type": "bytes"
        }
      ],
      "name": "buyLand",
      "outputs": [],
      "stateMutability": "nonpayable",
      "type": "function"
    },
    {
      "inputs": [
        {
          "internalType": "uint256",
          "name": "",
          "type": "uint256"
        }
      ],
      "name": "communityLandCount",
      "outputs": [
        {
          "internalType": "uint256",
          "name": "",
          "type": "uint256"
        }
      ],
      "stateMutability": "view",
      "type": "function"
    },
    {
      "inputs": [
        {
          "internalType": "uint256",
          "name": "tokenId",
          "type": "uint256"
        }
      ],
      "name": "getApproved",
      "outputs": [
        {
          "internalType": "address",
          "name": "",
          "type": "address"
        }
      ],
      "stateMutability": "view",
      "type": "function"
    },
    {
      "inputs": [
        {
          "internalType": "address",
          "name": "user",
          "type": "address"
        }
      ],
      "name": "getNonce",
      "outputs": [
        {
          "internalType": "uint256",
          "name": "",
          "type": "uint256"
        }
      ],
      "stateMutability": "view",
      "type": "function"
    },
    {
      "inputs": [
        {
          "internalType": "address",
          "name": "owner",
          "type": "address"
        },
        {
          "internalType": "address",
          "name": "operator",
          "type": "address"
        }
      ],
      "name": "isApprovedForAll",
      "outputs": [
        {
          "internalType": "bool",
          "name": "",
          "type": "bool"
        }
      ],
      "stateMutability": "view",
      "type": "function"
    },
    {
      "inputs": [],
      "name": "maxLandPerCommunity",
      "outputs": [
        {
          "internalType": "uint256",
          "name": "",
          "type": "uint256"
        }
      ],
      "stateMutability": "view",
      "type": "function"
    },
    {
      "inputs": [],
      "name": "mintPrice",
      "outputs": [
        {
          "internalType": "uint256",
          "name": "",
          "type": "uint256"
        }
      ],
      "stateMutability": "view",
      "type": "function"
    },
    {
      "inputs": [],
      "name": "mxToken",
      "outputs": [
        {
          "internalType": "contract IERC20",
          "name": "",
          "type": "address"
        }
      ],
      "stateMutability": "view",
      "type": "function"
    },
    {
      "inputs": [],
      "name": "name",
      "outputs": [
        {
          "internalType": "string",
          "name": "",
          "type": "string"
        }
      ],
      "stateMutability": "view",
      "type": "function"
    },
    {
      "inputs": [
        {
          "internalType": "address",
          "name": "",
          "type": "address"
        }
      ],
      "name": "nonces",
      "outputs": [
        {
          "internalType": "uint256",
          "name": "",
          "type": "uint256"
        }
      ],
      "stateMutability": "view",
      "type": "function"
    },
    {
      "inputs": [],
      "name": "owner",
      "outputs": [
        {
          "internalType": "address",
          "name": "",
          "type": "address"
        }
      ],
      "stateMutability": "view",
      "type": "function"
    },
    {
      "inputs": [
        {
          "internalType": "uint256",
          "name": "tokenId",
          "type": "uint256"
        }
      ],
      "name": "ownerOf",
      "outputs": [
        {
          "internalType": "address",
          "name": "",
          "type": "address"
        }
      ],
      "stateMutability": "view",
      "type": "function"
    },
    {
      "inputs": [],
      "name": "renounceOwnership",
      "outputs": [],
      "stateMutability": "nonpayable",
      "type": "function"
    },
    {
      "inputs": [
        {
          "internalType": "address",
          "name": "from",
          "type": "address"
        },
        {
          "internalType": "address",
          "name": "to",
          "type": "address"
        },
        {
          "internalType": "uint256",
          "name": "tokenId",
          "type": "uint256"
        }
      ],
      "name": "safeTransferFrom",
      "outputs": [],
      "stateMutability": "nonpayable",
      "type": "function"
    },
    {
      "inputs": [
        {
          "internalType": "address",
          "name": "from",
          "type": "address"
        },
        {
          "internalType": "address",
          "name": "to",
          "type": "address"
        },
        {
          "internalType": "uint256",
          "name": "tokenId",
          "type": "uint256"
        },
        {
          "internalType": "bytes",
          "name": "data",
          "type": "bytes"
        }
      ],
      "name": "safeTransferFrom",
      "outputs": [],
      "stateMutability": "nonpayable",
      "type": "function"
    },
    {
      "inputs": [
        {
          "internalType": "address",
          "name": "operator",
          "type": "address"
        },
        {
          "internalType": "bool",
          "name": "approved",
          "type": "bool"
        }
      ],
      "name": "setApprovalForAll",
      "outputs": [],
      "stateMutability": "nonpayable",
      "type": "function"
    },
    {
      "inputs": [
        {
          "internalType": "address",
          "name": "newSigner",
          "type": "address"
        }
      ],
      "name": "setAuthorizedSigner",
      "outputs": [],
      "stateMutability": "nonpayable",
      "type": "function"
    },
    {
      "inputs": [
        {
          "internalType": "string",
          "name": "baseURI",
          "type": "string"
        }
      ],
      "name": "setBaseTokenURI",
      "outputs": [],
      "stateMutability": "nonpayable",
      "type": "function"
    },
    {
      "inputs": [
        {
          "internalType": "uint256",
          "name": "newPrice",
          "type": "uint256"
        }
      ],
      "name": "setPrice",
      "outputs": [],
      "stateMutability": "nonpayable",
      "type": "function"
    },
    {
      "inputs": [
        {
          "internalType": "bytes4",
          "name": "interfaceId",
          "type": "bytes4"
        }
      ],
      "name": "supportsInterface",
      "outputs": [
        {
          "internalType": "bool",
          "name": "",
          "type": "bool"
        }
      ],
      "stateMutability": "view",
      "type": "function"
    },
    {
      "inputs": [],
      "name": "symbol",
      "outputs": [
        {
          "internalType": "string",
          "name": "",
          "type": "string"
        }
      ],
      "stateMutability": "view",
      "type": "function"
    },
    {
      "inputs": [
        {
          "internalType": "uint256",
          "name": "tokenId",
          "type": "uint256"
        }
      ],
      "name": "tokenURI",
      "outputs": [
        {
          "internalType": "string",
          "name": "",
          "type": "string"
        }
      ],
      "stateMutability": "view",
      "type": "function"
    },
    {
      "inputs": [
        {
          "internalType": "address",
          "name": "from",
          "type": "address"
        },
        {
          "internalType": "address",
          "name": "to",
          "type": "address"
        },
        {
          "internalType": "uint256",
          "name": "tokenId",
          "type": "uint256"
        }
      ],
      "name": "transferFrom",
      "outputs": [],
      "stateMutability": "nonpayable",
      "type": "function"
    },
    {
      "inputs": [
        {
          "internalType": "address",
          "name": "newOwner",
          "type": "address"
        }
      ],
      "name": "transferOwnership",
      "outputs": [],
      "stateMutability": "nonpayable",
      "type": "function"
    },
    {
      "inputs": [
        {
          "internalType": "address",
          "name": "to",
          "type": "address"
        },
        {
          "internalType": "uint256",
          "name": "amount",
          "type": "uint256"
        }
      ],
      "name": "withdrawMX",
      "outputs": [],
      "stateMutability": "nonpayable",
      "type": "function"
    }
  ],
  "bytecode": "0x6080604052620186a0600b553480156200001857600080fd5b50604051620044d3380380620044d383398181016040528101906200003e9190620004fe565b336040518060400160405280601081526020017f4d617273582d536b796c616e64657273000000000000000000000000000000008152506040518060400160405280600381526020017f4d584c00000000000000000000000000000000000000000000000000000000008152508160009081620000bc9190620007d0565b508060019081620000ce9190620007d0565b505050600073ffffffffffffffffffffffffffffffffffffffff168173ffffffffffffffffffffffffffffffffffffffff1603620001465760006040517f1e4fbdf70000000000000000000000000000000000000000000000000000000081526004016200013d9190620008c8565b60405180910390fd5b62000157816200020560201b60201c565b50600160078190555083600860006101000a81548173ffffffffffffffffffffffffffffffffffffffff021916908373ffffffffffffffffffffffffffffffffffffffff16021790555082600d60006101000a81548173ffffffffffffffffffffffffffffffffffffffff021916908373ffffffffffffffffffffffffffffffffffffffff16021790555081600a8190555080600f9081620001fa9190620007d0565b5050505050620008e5565b6000600660009054906101000a900473ffffffffffffffffffffffffffffffffffffffff16905081600660006101000a81548173ffffffffffffffffffffffffffffffffffffffff021916908373ffffffffffffffffffffffffffffffffffffffff1602179055508173ffffffffffffffffffffffffffffffffffffffff168173ffffffffffffffffffffffffffffffffffffffff167f8be0079c531659141344cd1fd0a4f28419497f9722a3daafe3b4186f6b6457e060405160405180910390a35050565b6000604051905090565b600080fd5b600080fd5b600073ffffffffffffffffffffffffffffffffffffffff82169050919050565b60006200030c82620002df565b9050919050565b6200031e81620002ff565b81146200032a57600080fd5b50565b6000815190506200033e8162000313565b92915050565b6000819050919050565b620003598162000344565b81146200036557600080fd5b50565b60008151905062000379816200034e565b92915050565b600080fd5b600080fd5b6000601f19601f8301169050919050565b7f4e487b7100000000000000000000000000000000000000000000000000000000600052604160045260246000fd5b620003d48262000389565b810181811067ffffffffffffffff82111715620003f657620003f56200039a565b5b80604052505050565b60006200040b620002cb565b9050620004198282620003c9565b919050565b600067ffffffffffffffff8211156200043c576200043b6200039a565b5b620004478262000389565b9050602081019050919050565b60005b838110156200047457808201518184015260208101905062000457565b60008484015250505050565b60006200049762000491846200041e565b620003ff565b905082815260208101848484011115620004b657620004b562000384565b5b620004c384828562000454565b509392505050565b600082601f830112620004e357620004e26200037f565b5b8151620004f584826020860162000480565b91505092915050565b600080600080608085870312156200051b576200051a620002d5565b5b60006200052b878288016200032d565b94505060206200053e878288016200032d565b9350506040620005518782880162000368565b925050606085015167ffffffffffffffff811115620005755762000574620002da565b5b6200058387828801620004cb565b91505092959194509250565b600081519050919050565b7f4e487b7100000000000000000000000000000000000000000000000000000000600052602260045260246000fd5b60006002820490506001821680620005e257607f821691505b602082108103620005f857620005f76200059a565b5b50919050565b60008190508160005260206000209050919050565b60006020601f8301049050919050565b600082821b905092915050565b600060088302620006627fffffffffffffffffffffffffffffffffffffffffffffffffffffffffffffffff8262000623565b6200066e868362000623565b95508019841693508086168417925050509392505050565b6000819050919050565b6000620006b1620006ab620006a58462000344565b62000686565b62000344565b9050919050565b6000819050919050565b620006cd8362000690565b620006e5620006dc82620006b8565b84845462000630565b825550505050565b600090565b620006fc620006ed565b62000709818484620006c2565b505050565b5b81811015620007315762000725600082620006f2565b6001810190506200070f565b5050565b601f82111562000780576200074a81620005fe565b620007558462000613565b8101602085101562000765578190505b6200077d620007748562000613565b8301826200070e565b50505b505050565b600082821c905092915050565b6000620007a56000198460080262000785565b1980831691505092915050565b6000620007c0838362000792565b9150826002028217905092915050565b620007db826200058f565b67ffffffffffffffff811115620007f757620007f66200039a565b5b620008038254620005c9565b6200081082828562000735565b600060209050601f83116001811462000848576000841562000833578287015190505b6200083f8582620007b2565b865550620008af565b601f1984166200085886620005fe565b60005b8281101562000882578489015182556001820191506020850194506020810190506200085b565b86831015620008a257848901516200089e601f89168262000792565b8355505b6001600288020188555050505b505050505050565b620008c281620002ff565b82525050565b6000602082019050620008df6000830184620008b7565b92915050565b613bde80620008f56000396000f3fe608060405234801561001057600080fd5b50600436106101a95760003560e01c8063715018a6116100f9578063a22cb46511610097578063d279b0ca11610071578063d279b0ca146104cc578063d68911dd146104e8578063e985e9c514610504578063f2fde38b14610534576101a9565b8063a22cb46514610464578063b88d4fde14610480578063c87b56dd1461049c576101a9565b80638da5cb5b116100d35780638da5cb5b146103dc57806391b7f5ed146103fa57806395d89b4114610416578063a054fbc314610434576101a9565b8063715018a6146103865780637ecebe00146103905780638039c707146103c0576101a9565b806330176e131161016657806356cd744b1161014057806356cd744b146102ea5780636352211e146103085780636817c76c1461033857806370a0823114610356576101a9565b806330176e131461029457806342842e0e146102b057806352a51262146102cc576101a9565b806301ffc9a7146101ae57806306fdde03146101de578063081812fc146101fc578063095ea7b31461022c57806323b872dd146102485780632d0335ab14610264575b600080fd5b6101c860048036038101906101c391906126e4565b610550565b6040516101d5919061272c565b60405180910390f35b6101e6610632565b6040516101f391906127d7565b60405180910390f35b6102166004803603810190610211919061282f565b6106c4565b604051610223919061289d565b60405180910390f35b610246600480360381019061024191906128e4565b6106e0565b005b610262600480360381019061025d9190612924565b6106f6565b005b61027e60048036038101906102799190612977565b6107f8565b60405161028b91906129b3565b60405180910390f35b6102ae60048036038101906102a99190612a33565b610841565b005b6102ca60048036038101906102c59190612924565b61089b565b005b6102d46108bb565b6040516102e19190612adf565b60405180910390f35b6102f26108e1565b6040516102ff91906129b3565b60405180910390f35b610322600480360381019061031d919061282f565b6108e7565b60405161032f919061289d565b60405180910390f35b6103406108f9565b60405161034d91906129b3565b60405180910390f35b610370600480360381019061036b9190612977565b6108ff565b60405161037d91906129b3565b60405180910390f35b61038e6109b9565b005b6103aa60048036038101906103a59190612977565b6109cd565b6040516103b791906129b3565b60405180910390f35b6103da60048036038101906103d59190612ba6565b6109e5565b005b6103e4610ef0565b6040516103f1919061289d565b60405180910390f35b610414600480360381019061040f919061282f565b610f1a565b005b61041e610f67565b60405161042b91906127d7565b60405180910390f35b61044e6004803603810190610449919061282f565b610ff9565b60405161045b91906129b3565b60405180910390f35b61047e60048036038101906104799190612c79565b611011565b005b61049a60048036038101906104959190612de9565b611027565b005b6104b660048036038101906104b1919061282f565b611044565b6040516104c391906127d7565b60405180910390f35b6104e660048036038101906104e19190612977565b6110a3565b005b61050260048036038101906104fd91906128e4565b6111da565b005b61051e60048036038101906105199190612e6c565b6112c5565b60405161052b919061272c565b60405180910390f35b61054e60048036038101906105499190612977565b611359565b005b60007f80ac58cd000000000000000000000000000000000000000000000000000000007bffffffffffffffffffffffffffffffffffffffffffffffffffffffff1916827bffffffffffffffffffffffffffffffffffffffffffffffffffffffff1916148061061b57507f5b5e139f000000000000000000000000000000000000000000000000000000007bffffffffffffffffffffffffffffffffffffffffffffffffffffffff1916827bffffffffffffffffffffffffffffffffffffffffffffffffffffffff1916145b8061062b575061062a826113df565b5b9050919050565b60606000805461064190612edb565b80601f016020809104026020016040519081016040528092919081815260200182805461066d90612edb565b80156106ba5780601f1061068f576101008083540402835291602001916106ba565b820191906000526020600020905b81548152906001019060200180831161069d57829003601f168201915b5050505050905090565b60006106cf82611449565b506106d9826114d1565b9050919050565b6106f282826106ed61150e565b611516565b5050565b600073ffffffffffffffffffffffffffffffffffffffff168273ffffffffffffffffffffffffffffffffffffffff16036107685760006040517f64a0ae9200000000000000000000000000000000000000000000000000000000815260040161075f919061289d565b60405180910390fd5b600061077c838361077761150e565b611528565b90508373ffffffffffffffffffffffffffffffffffffffff168173ffffffffffffffffffffffffffffffffffffffff16146107f2578382826040517f64283d7b0000000000000000000000000000000000000000000000000000000081526004016107e993929190612f0c565b60405180910390fd5b50505050565b6000600e60008373ffffffffffffffffffffffffffffffffffffffff1673ffffffffffffffffffffffffffffffffffffffff168152602001908152602001600020549050919050565b610849611742565b7f19c1a81f34d9a8d208a44017474815e9089aff4b57e461c08509577eea2c3900600f838360405161087d93929190613009565b60405180910390a18181600f91826108969291906131da565b505050565b6108b683838360405180602001604052806000815250611027565b505050565b600860009054906101000a900473ffffffffffffffffffffffffffffffffffffffff1681565b600b5481565b60006108f282611449565b9050919050565b600a5481565b60008073ffffffffffffffffffffffffffffffffffffffff168273ffffffffffffffffffffffffffffffffffffffff16036109725760006040517f89c62b64000000000000000000000000000000000000000000000000000000008152600401610969919061289d565b60405180910390fd5b600360008373ffffffffffffffffffffffffffffffffffffffff1673ffffffffffffffffffffffffffffffffffffffff168152602001908152602001600020549050919050565b6109c1611742565b6109cb60006117c9565b565b600e6020528060005260406000206000915090505481565b6109ed61188f565b6000600d60009054906101000a900473ffffffffffffffffffffffffffffffffffffffff1687878787604051602001610a2a959493929190613388565b6040516020818303038152906040528051906020012090506000610a4d826118d5565b9050600d60009054906101000a900473ffffffffffffffffffffffffffffffffffffffff1673ffffffffffffffffffffffffffffffffffffffff16610ad68286868080601f016020809104026020016040519081016040528093929190818152602001838380828437600081840152601f19601f8201169050808301925050505050505061190b565b73ffffffffffffffffffffffffffffffffffffffff1614610b2c576040517f08c379a0000000000000000000000000000000000000000000000000000000008152600401610b2390613420565b60405180910390fd5b600e60003373ffffffffffffffffffffffffffffffffffffffff1673ffffffffffffffffffffffffffffffffffffffff168152602001908152602001600020548514610bad576040517f08c379a0000000000000000000000000000000000000000000000000000000008152600401610ba49061348c565b60405180910390fd5b600e60003373ffffffffffffffffffffffffffffffffffffffff1673ffffffffffffffffffffffffffffffffffffffff1681526020019081526020016000206000815480929190610bfd906134db565b919050555060008787905011610c48576040517f08c379a0000000000000000000000000000000000000000000000000000000008152600401610c3f9061356f565b60405180910390fd5b600b5487879050600c60008b815260200190815260200160002054610c6d919061358f565b1115610cae576040517f08c379a0000000000000000000000000000000000000000000000000000000008152600401610ca59061360f565b60405180910390fd5b600087879050600a54610cc1919061362f565b9050600860009054906101000a900473ffffffffffffffffffffffffffffffffffffffff1673ffffffffffffffffffffffffffffffffffffffff166323b872dd3330846040518463ffffffff1660e01b8152600401610d2293929190613671565b6020604051808303816000875af1158015610d41573d6000803e3d6000fd5b505050506040513d601f19601f82011682018060405250810190610d6591906136bd565b610da4576040517f08c379a0000000000000000000000000000000000000000000000000000000008152600401610d9b90613736565b60405180910390fd5b60005b88889050811015610edc576000898983818110610dc757610dc6613756565b5b905060200201359050610dd981611937565b15610e19576040517f08c379a0000000000000000000000000000000000000000000000000000000008152600401610e10906137d1565b60405180910390fd5b610e233382611961565b60016009600083815260200190815260200160002060006101000a81548160ff021916908315150217905550600c60008c81526020019081526020016000206000815480929190610e73906134db565b91905055503373ffffffffffffffffffffffffffffffffffffffff167fb673527cad78eb2e4b2390f8c60ad65a17bb8387b8478e38ebf6982c75990a8f8c83604051610ec09291906137f1565b60405180910390a2508080610ed4906134db565b915050610da7565b50505050610ee8611a5a565b505050505050565b6000600660009054906101000a900473ffffffffffffffffffffffffffffffffffffffff16905090565b610f22611742565b7ff9317dc3bc6dda0e00e43855c2c30847aeafb8dcea9d2ce86e9ce7a83d549f01600a5482604051610f559291906137f1565b60405180910390a180600a8190555050565b606060018054610f7690612edb565b80601f0160208091040260200160405190810160405280929190818152602001828054610fa290612edb565b8015610fef5780601f10610fc457610100808354040283529160200191610fef565b820191906000526020600020905b815481529060010190602001808311610fd257829003601f168201915b5050505050905090565b600c6020528060005260406000206000915090505481565b61102361101c61150e565b8383611a64565b5050565b6110328484846106f6565b61103e84848484611bd3565b50505050565b60606000611050611d8a565b90506000815111611070576040518060200160405280600081525061109b565b8061107a84611e1c565b60405160200161108b9291906138a2565b6040516020818303038152906040525b915050919050565b6110ab611742565b600073ffffffffffffffffffffffffffffffffffffffff168173ffffffffffffffffffffffffffffffffffffffff160361111a576040517f08c379a00000000000000000000000000000000000000000000000000000000081526004016111119061391d565b60405180910390fd5b8073ffffffffffffffffffffffffffffffffffffffff16600d60009054906101000a900473ffffffffffffffffffffffffffffffffffffffff1673ffffffffffffffffffffffffffffffffffffffff167f1335ab7378815b8b72bf5a5620a6db4ea69e58ce5d5985bfe37df326b8f4279b60405160405180910390a380600d60006101000a81548173ffffffffffffffffffffffffffffffffffffffff021916908373ffffffffffffffffffffffffffffffffffffffff16021790555050565b6111e2611742565b600860009054906101000a900473ffffffffffffffffffffffffffffffffffffffff1673ffffffffffffffffffffffffffffffffffffffff1663a9059cbb83836040518363ffffffff1660e01b815260040161123f92919061393d565b6020604051808303816000875af115801561125e573d6000803e3d6000fd5b505050506040513d601f19601f8201168201806040525081019061128291906136bd565b6112c1576040517f08c379a00000000000000000000000000000000000000000000000000000000081526004016112b8906139b2565b60405180910390fd5b5050565b6000600560008473ffffffffffffffffffffffffffffffffffffffff1673ffffffffffffffffffffffffffffffffffffffff16815260200190815260200160002060008373ffffffffffffffffffffffffffffffffffffffff1673ffffffffffffffffffffffffffffffffffffffff16815260200190815260200160002060009054906101000a900460ff16905092915050565b611361611742565b600073ffffffffffffffffffffffffffffffffffffffff168173ffffffffffffffffffffffffffffffffffffffff16036113d35760006040517f1e4fbdf70000000000000000000000000000000000000000000000000000000081526004016113ca919061289d565b60405180910390fd5b6113dc816117c9565b50565b60007f01ffc9a7000000000000000000000000000000000000000000000000000000007bffffffffffffffffffffffffffffffffffffffffffffffffffffffff1916827bffffffffffffffffffffffffffffffffffffffffffffffffffffffff1916149050919050565b60008061145583611eea565b9050600073ffffffffffffffffffffffffffffffffffffffff168173ffffffffffffffffffffffffffffffffffffffff16036114c857826040517f7e2732890000000000000000000000000000000000000000000000000000000081526004016114bf91906129b3565b60405180910390fd5b80915050919050565b60006004600083815260200190815260200160002060009054906101000a900473ffffffffffffffffffffffffffffffffffffffff169050919050565b600033905090565b6115238383836001611f27565b505050565b60008061153484611eea565b9050600073ffffffffffffffffffffffffffffffffffffffff168373ffffffffffffffffffffffffffffffffffffffff1614611576576115758184866120ec565b5b600073ffffffffffffffffffffffffffffffffffffffff168173ffffffffffffffffffffffffffffffffffffffff1614611607576115b8600085600080611f27565b6001600360008373ffffffffffffffffffffffffffffffffffffffff1673ffffffffffffffffffffffffffffffffffffffff168152602001908152602001600020600082825403925050819055505b600073ffffffffffffffffffffffffffffffffffffffff168573ffffffffffffffffffffffffffffffffffffffff161461168a576001600360008773ffffffffffffffffffffffffffffffffffffffff1673ffffffffffffffffffffffffffffffffffffffff168152602001908152602001600020600082825401925050819055505b846002600086815260200190815260200160002060006101000a81548173ffffffffffffffffffffffffffffffffffffffff021916908373ffffffffffffffffffffffffffffffffffffffff160217905550838573ffffffffffffffffffffffffffffffffffffffff168273ffffffffffffffffffffffffffffffffffffffff167fddf252ad1be2c89b69c2b068fc378daa952ba7f163c4a11628f55a4df523b3ef60405160405180910390a4809150509392505050565b61174a61150e565b73ffffffffffffffffffffffffffffffffffffffff16611768610ef0565b73ffffffffffffffffffffffffffffffffffffffff16146117c75761178b61150e565b6040517f118cdaa70000000000000000000000000000000000000000000000000000000081526004016117be919061289d565b60405180910390fd5b565b6000600660009054906101000a900473ffffffffffffffffffffffffffffffffffffffff16905081600660006101000a81548173ffffffffffffffffffffffffffffffffffffffff021916908373ffffffffffffffffffffffffffffffffffffffff1602179055508173ffffffffffffffffffffffffffffffffffffffff168173ffffffffffffffffffffffffffffffffffffffff167f8be0079c531659141344cd1fd0a4f28419497f9722a3daafe3b4186f6b6457e060405160405180910390a35050565b6002600754036118cb576040517f3ee5aeb500000000000000000000000000000000000000000000000000000000815260040160405180910390fd5b6002600781905550565b60007f19457468657265756d205369676e6564204d6573736167653a0a33320000000060005281601c52603c6000209050919050565b60008060008061191b86866121b0565b92509250925061192b828261220c565b82935050505092915050565b60006009600083815260200190815260200160002060009054906101000a900460ff169050919050565b600073ffffffffffffffffffffffffffffffffffffffff168273ffffffffffffffffffffffffffffffffffffffff16036119d35760006040517f64a0ae920000000000000000000000000000000000000000000000000000000081526004016119ca919061289d565b60405180910390fd5b60006119e183836000611528565b9050600073ffffffffffffffffffffffffffffffffffffffff168173ffffffffffffffffffffffffffffffffffffffff1614611a555760006040517f73c6ac6e000000000000000000000000000000000000000000000000000000008152600401611a4c919061289d565b60405180910390fd5b505050565b6001600781905550565b600073ffffffffffffffffffffffffffffffffffffffff168273ffffffffffffffffffffffffffffffffffffffff1603611ad557816040517f5b08ba18000000000000000000000000000000000000000000000000000000008152600401611acc919061289d565b60405180910390fd5b80600560008573ffffffffffffffffffffffffffffffffffffffff1673ffffffffffffffffffffffffffffffffffffffff16815260200190815260200160002060008473ffffffffffffffffffffffffffffffffffffffff1673ffffffffffffffffffffffffffffffffffffffff16815260200190815260200160002060006101000a81548160ff0219169083151502179055508173ffffffffffffffffffffffffffffffffffffffff168373ffffffffffffffffffffffffffffffffffffffff167f17307eab39ab6107e8899845ad3d59bd9653f200f220920489ca2b5937696c3183604051611bc6919061272c565b60405180910390a3505050565b60008373ffffffffffffffffffffffffffffffffffffffff163b1115611d84578273ffffffffffffffffffffffffffffffffffffffff1663150b7a02611c1761150e565b8685856040518563ffffffff1660e01b8152600401611c399493929190613a27565b6020604051808303816000875af1925050508015611c7557506040513d601f19601f82011682018060405250810190611c729190613a88565b60015b611cf9573d8060008114611ca5576040519150601f19603f3d011682016040523d82523d6000602084013e611caa565b606091505b506000815103611cf157836040517f64a0ae92000000000000000000000000000000000000000000000000000000008152600401611ce8919061289d565b60405180910390fd5b805181602001fd5b63150b7a0260e01b7bffffffffffffffffffffffffffffffffffffffffffffffffffffffff1916817bffffffffffffffffffffffffffffffffffffffffffffffffffffffff191614611d8257836040517f64a0ae92000000000000000000000000000000000000000000000000000000008152600401611d79919061289d565b60405180910390fd5b505b50505050565b6060600f8054611d9990612edb565b80601f0160208091040260200160405190810160405280929190818152602001828054611dc590612edb565b8015611e125780601f10611de757610100808354040283529160200191611e12565b820191906000526020600020905b815481529060010190602001808311611df557829003601f168201915b5050505050905090565b606060006001611e2b84612370565b01905060008167ffffffffffffffff811115611e4a57611e49612cbe565b5b6040519080825280601f01601f191660200182016040528015611e7c5781602001600182028036833780820191505090505b509050600082602001820190505b600115611edf578080600190039150507f3031323334353637383961626364656600000000000000000000000000000000600a86061a8153600a8581611ed357611ed2613ab5565b5b04945060008503611e8a575b819350505050919050565b60006002600083815260200190815260200160002060009054906101000a900473ffffffffffffffffffffffffffffffffffffffff169050919050565b8080611f605750600073ffffffffffffffffffffffffffffffffffffffff168273ffffffffffffffffffffffffffffffffffffffff1614155b15612094576000611f7084611449565b9050600073ffffffffffffffffffffffffffffffffffffffff168373ffffffffffffffffffffffffffffffffffffffff1614158015611fdb57508273ffffffffffffffffffffffffffffffffffffffff168173ffffffffffffffffffffffffffffffffffffffff1614155b8015611fee5750611fec81846112c5565b155b1561203057826040517fa9fbf51f000000000000000000000000000000000000000000000000000000008152600401612027919061289d565b60405180910390fd5b811561209257838573ffffffffffffffffffffffffffffffffffffffff168273ffffffffffffffffffffffffffffffffffffffff167f8c5be1e5ebec7d5bd14f71427d1e84f3dd0314c0f7b2291e5b200ac8c7c3b92560405160405180910390a45b505b836004600085815260200190815260200160002060006101000a81548173ffffffffffffffffffffffffffffffffffffffff021916908373ffffffffffffffffffffffffffffffffffffffff16021790555050505050565b6120f78383836124c3565b6121ab57600073ffffffffffffffffffffffffffffffffffffffff168373ffffffffffffffffffffffffffffffffffffffff160361216c57806040517f7e27328900000000000000000000000000000000000000000000000000000000815260040161216391906129b3565b60405180910390fd5b81816040517f177e802f0000000000000000000000000000000000000000000000000000000081526004016121a292919061393d565b60405180910390fd5b505050565b600080600060418451036121f55760008060006020870151925060408701519150606087015160001a90506121e788828585612584565b955095509550505050612205565b60006002855160001b9250925092505b9250925092565b600060038111156122205761221f613ae4565b5b82600381111561223357612232613ae4565b5b031561236c576001600381111561224d5761224c613ae4565b5b8260038111156122605761225f613ae4565b5b03612297576040517ff645eedf00000000000000000000000000000000000000000000000000000000815260040160405180910390fd5b600260038111156122ab576122aa613ae4565b5b8260038111156122be576122bd613ae4565b5b03612303578060001c6040517ffce698f70000000000000000000000000000000000000000000000000000000081526004016122fa91906129b3565b60405180910390fd5b60038081111561231657612315613ae4565b5b82600381111561232957612328613ae4565b5b0361236b57806040517fd78bce0c0000000000000000000000000000000000000000000000000000000081526004016123629190613b2c565b60405180910390fd5b5b5050565b600080600090507a184f03e93ff9f4daa797ed6e38ed64bf6a1f01000000000000000083106123ce577a184f03e93ff9f4daa797ed6e38ed64bf6a1f01000000000000000083816123c4576123c3613ab5565b5b0492506040810190505b6d04ee2d6d415b85acef8100000000831061240b576d04ee2d6d415b85acef8100000000838161240157612400613ab5565b5b0492506020810190505b662386f26fc10000831061243a57662386f26fc1000083816124305761242f613ab5565b5b0492506010810190505b6305f5e1008310612463576305f5e100838161245957612458613ab5565b5b0492506008810190505b612710831061248857612710838161247e5761247d613ab5565b5b0492506004810190505b606483106124ab57606483816124a1576124a0613ab5565b5b0492506002810190505b600a83106124ba576001810190505b80915050919050565b60008073ffffffffffffffffffffffffffffffffffffffff168373ffffffffffffffffffffffffffffffffffffffff161415801561257b57508273ffffffffffffffffffffffffffffffffffffffff168473ffffffffffffffffffffffffffffffffffffffff16148061253c575061253b84846112c5565b5b8061257a57508273ffffffffffffffffffffffffffffffffffffffff16612562836114d1565b73ffffffffffffffffffffffffffffffffffffffff16145b5b90509392505050565b60008060007f7fffffffffffffffffffffffffffffff5d576e7357a4501ddfe92f46681b20a08460001c11156125c457600060038592509250925061266e565b6000600188888888604051600081526020016040526040516125e99493929190613b63565b6020604051602081039080840390855afa15801561260b573d6000803e3d6000fd5b505050602060405103519050600073ffffffffffffffffffffffffffffffffffffffff168173ffffffffffffffffffffffffffffffffffffffff160361265f57600060016000801b9350935093505061266e565b8060008060001b935093509350505b9450945094915050565b6000604051905090565b600080fd5b600080fd5b60007fffffffff0000000000000000000000000000000000000000000000000000000082169050919050565b6126c18161268c565b81146126cc57600080fd5b50565b6000813590506126de816126b8565b92915050565b6000602082840312156126fa576126f9612682565b5b6000612708848285016126cf565b91505092915050565b60008115159050919050565b61272681612711565b82525050565b6000602082019050612741600083018461271d565b92915050565b600081519050919050565b600082825260208201905092915050565b60005b83811015612781578082015181840152602081019050612766565b60008484015250505050565b6000601f19601f8301169050919050565b60006127a982612747565b6127b38185612752565b93506127c3818560208601612763565b6127cc8161278d565b840191505092915050565b600060208201905081810360008301526127f1818461279e565b905092915050565b6000819050919050565b61280c816127f9565b811461281757600080fd5b50565b60008135905061282981612803565b92915050565b60006020828403121561284557612844612682565b5b60006128538482850161281a565b91505092915050565b600073ffffffffffffffffffffffffffffffffffffffff82169050919050565b60006128878261285c565b9050919050565b6128978161287c565b82525050565b60006020820190506128b2600083018461288e565b92915050565b6128c18161287c565b81146128cc57600080fd5b50565b6000813590506128de816128b8565b92915050565b600080604083850312156128fb576128fa612682565b5b6000612909858286016128cf565b925050602061291a8582860161281a565b9150509250929050565b60008060006060848603121561293d5761293c612682565b5b600061294b868287016128cf565b935050602061295c868287016128cf565b925050604061296d8682870161281a565b9150509250925092565b60006020828403121561298d5761298c612682565b5b600061299b848285016128cf565b91505092915050565b6129ad816127f9565b82525050565b60006020820190506129c860008301846129a4565b92915050565b600080fd5b600080fd5b600080fd5b60008083601f8401126129f3576129f26129ce565b5b8235905067ffffffffffffffff811115612a1057612a0f6129d3565b5b602083019150836001820283011115612a2c57612a2b6129d8565b5b9250929050565b60008060208385031215612a4a57612a49612682565b5b600083013567ffffffffffffffff811115612a6857612a67612687565b5b612a74858286016129dd565b92509250509250929050565b6000819050919050565b6000612aa5612aa0612a9b8461285c565b612a80565b61285c565b9050919050565b6000612ab782612a8a565b9050919050565b6000612ac982612aac565b9050919050565b612ad981612abe565b82525050565b6000602082019050612af46000830184612ad0565b92915050565b60008083601f840112612b1057612b0f6129ce565b5b8235905067ffffffffffffffff811115612b2d57612b2c6129d3565b5b602083019150836020820283011115612b4957612b486129d8565b5b9250929050565b60008083601f840112612b6657612b656129ce565b5b8235905067ffffffffffffffff811115612b8357612b826129d3565b5b602083019150836001820283011115612b9f57612b9e6129d8565b5b9250929050565b60008060008060008060808789031215612bc357612bc2612682565b5b6000612bd189828a0161281a565b965050602087013567ffffffffffffffff811115612bf257612bf1612687565b5b612bfe89828a01612afa565b95509550506040612c1189828a0161281a565b935050606087013567ffffffffffffffff811115612c3257612c31612687565b5b612c3e89828a01612b50565b92509250509295509295509295565b612c5681612711565b8114612c6157600080fd5b50565b600081359050612c7381612c4d565b92915050565b60008060408385031215612c9057612c8f612682565b5b6000612c9e858286016128cf565b9250506020612caf85828601612c64565b9150509250929050565b600080fd5b7f4e487b7100000000000000000000000000000000000000000000000000000000600052604160045260246000fd5b612cf68261278d565b810181811067ffffffffffffffff82111715612d1557612d14612cbe565b5b80604052505050565b6000612d28612678565b9050612d348282612ced565b919050565b600067ffffffffffffffff821115612d5457612d53612cbe565b5b612d5d8261278d565b9050602081019050919050565b82818337600083830152505050565b6000612d8c612d8784612d39565b612d1e565b905082815260208101848484011115612da857612da7612cb9565b5b612db3848285612d6a565b509392505050565b600082601f830112612dd057612dcf6129ce565b5b8135612de0848260208601612d79565b91505092915050565b60008060008060808587031215612e0357612e02612682565b5b6000612e11878288016128cf565b9450506020612e22878288016128cf565b9350506040612e338782880161281a565b925050606085013567ffffffffffffffff811115612e5457612e53612687565b5b612e6087828801612dbb565b91505092959194509250565b60008060408385031215612e8357612e82612682565b5b6000612e91858286016128cf565b9250506020612ea2858286016128cf565b9150509250929050565b7f4e487b7100000000000000000000000000000000000000000000000000000000600052602260045260246000fd5b60006002820490506001821680612ef357607f821691505b602082108103612f0657612f05612eac565b5b50919050565b6000606082019050612f21600083018661288e565b612f2e60208301856129a4565b612f3b604083018461288e565b949350505050565b60008190508160005260206000209050919050565b60008154612f6581612edb565b612f6f8186612752565b94506001821660008114612f8a5760018114612fa057612fd3565b60ff198316865281151560200286019350612fd3565b612fa985612f43565b60005b83811015612fcb57815481890152600182019150602081019050612fac565b808801955050505b50505092915050565b6000612fe88385612752565b9350612ff5838584612d6a565b612ffe8361278d565b840190509392505050565b600060408201905081810360008301526130238186612f58565b90508181036020830152613038818486612fdc565b9050949350505050565b600082905092915050565b60006020601f8301049050919050565b600082821b905092915050565b60006008830261309a7fffffffffffffffffffffffffffffffffffffffffffffffffffffffffffffffff8261305d565b6130a4868361305d565b95508019841693508086168417925050509392505050565b60006130d76130d26130cd846127f9565b612a80565b6127f9565b9050919050565b6000819050919050565b6130f1836130bc565b6131056130fd826130de565b84845461306a565b825550505050565b600090565b61311a61310d565b6131258184846130e8565b505050565b5b818110156131495761313e600082613112565b60018101905061312b565b5050565b601f82111561318e5761315f81612f43565b6131688461304d565b81016020851015613177578190505b61318b6131838561304d565b83018261312a565b50505b505050565b600082821c905092915050565b60006131b160001984600802613193565b1980831691505092915050565b60006131ca83836131a0565b9150826002028217905092915050565b6131e48383613042565b67ffffffffffffffff8111156131fd576131fc612cbe565b5b6132078254612edb565b61321282828561314d565b6000601f831160018114613241576000841561322f578287013590505b61323985826131be565b8655506132a1565b601f19841661324f86612f43565b60005b8281101561327757848901358255600182019150602085019450602081019050613252565b868310156132945784890135613290601f8916826131a0565b8355505b6001600288020188555050505b50505050505050565b60008160601b9050919050565b60006132c2826132aa565b9050919050565b60006132d4826132b7565b9050919050565b6132ec6132e78261287c565b6132c9565b82525050565b6000819050919050565b61330d613308826127f9565b6132f2565b82525050565b600081905092915050565b600080fd5b82818337505050565b60006133388385613313565b93507f07ffffffffffffffffffffffffffffffffffffffffffffffffffffffffffffff83111561336b5761336a61331e565b5b60208302925061337c838584613323565b82840190509392505050565b600061339482886132db565b6014820191506133a482876132fc565b6020820191506133b582858761332c565b91506133c182846132fc565b6020820191508190509695505050505050565b7f496e76616c6964207369676e6174757265000000000000000000000000000000600082015250565b600061340a601183612752565b9150613415826133d4565b602082019050919050565b60006020820190508181036000830152613439816133fd565b9050919050565b7f496e76616c6964206e6f6e636500000000000000000000000000000000000000600082015250565b6000613476600d83612752565b915061348182613440565b602082019050919050565b600060208201905081810360008301526134a581613469565b9050919050565b7f4e487b7100000000000000000000000000000000000000000000000000000000600052601160045260246000fd5b60006134e6826127f9565b91507fffffffffffffffffffffffffffffffffffffffffffffffffffffffffffffffff8203613518576135176134ac565b5b600182019050919050565b7f4d757374206d696e74206174206c65617374206f6e6520746f6b656e00000000600082015250565b6000613559601c83612752565b915061356482613523565b602082019050919050565b600060208201905081810360008301526135888161354c565b9050919050565b600061359a826127f9565b91506135a5836127f9565b92508282019050808211156135bd576135bc6134ac565b5b92915050565b7f45786365656473206d6178696d756d206c616e6420737570706c790000000000600082015250565b60006135f9601b83612752565b9150613604826135c3565b602082019050919050565b60006020820190508181036000830152613628816135ec565b9050919050565b600061363a826127f9565b9150613645836127f9565b9250828202613653816127f9565b9150828204841483151761366a576136696134ac565b5b5092915050565b6000606082019050613686600083018661288e565b613693602083018561288e565b6136a060408301846129a4565b949350505050565b6000815190506136b781612c4d565b92915050565b6000602082840312156136d3576136d2612682565b5b60006136e1848285016136a8565b91505092915050565b7f4d5820546f6b656e207472616e73666572206661696c65640000000000000000600082015250565b6000613720601883612752565b915061372b826136ea565b602082019050919050565b6000602082019050818103600083015261374f81613713565b9050919050565b7f4e487b7100000000000000000000000000000000000000000000000000000000600052603260045260246000fd5b7f546f6b656e20616c7265616479206d696e746564000000000000000000000000600082015250565b60006137bb601483612752565b91506137c682613785565b602082019050919050565b600060208201905081810360008301526137ea816137ae565b9050919050565b600060408201905061380660008301856129a4565b61381360208301846129a4565b9392505050565b600081905092915050565b600061383082612747565b61383a818561381a565b935061384a818560208601612763565b80840191505092915050565b7f2e6a736f6e000000000000000000000000000000000000000000000000000000600082015250565b600061388c60058361381a565b915061389782613856565b600582019050919050565b60006138ae8285613825565b91506138ba8284613825565b91506138c58261387f565b91508190509392505050565b7f496e76616c696420416464726573730000000000000000000000000000000000600082015250565b6000613907600f83612752565b9150613912826138d1565b602082019050919050565b60006020820190508181036000830152613936816138fa565b9050919050565b6000604082019050613952600083018561288e565b61395f60208301846129a4565b9392505050565b7f5769746864726177616c206661696c6564000000000000000000000000000000600082015250565b600061399c601183612752565b91506139a782613966565b602082019050919050565b600060208201905081810360008301526139cb8161398f565b9050919050565b600081519050919050565b600082825260208201905092915050565b60006139f9826139d2565b613a0381856139dd565b9350613a13818560208601612763565b613a1c8161278d565b840191505092915050565b6000608082019050613a3c600083018761288e565b613a49602083018661288e565b613a5660408301856129a4565b8181036060830152613a6881846139ee565b905095945050505050565b600081519050613a82816126b8565b92915050565b600060208284031215613a9e57613a9d612682565b5b6000613aac84828501613a73565b91505092915050565b7f4e487b7100000000000000000000000000000000000000000000000000000000600052601260045260246000fd5b7f4e487b7100000000000000000000000000000000000000000000000000000000600052602160045260246000fd5b6000819050919050565b613b2681613b13565b82525050565b6000602082019050613b416000830184613b1d565b92915050565b600060ff82169050919050565b613b5d81613b47565b82525050565b6000608082019050613b786000830187613b1d565b613b856020830186613b54565b613b926040830185613b1d565b613b9f6060830184613b1d565b9594505050505056fea2646970667358221220fde1217cfd5e7eb0bba5100b7ceb03395fceb5fa8b34b03af8df6e854acbcfc164736f6c63430008140033",
  "linkReferences": {},
  "deployedLinkReferences": {}
}